{
  "valid": [
    {
      "description": "A FLO transaction",
      "id": "b704842dc6a74830014bc052d7cf7bbc4578c31619fb29437b61f9202a0f2775",
      "hex": "02000000012e913a841e8d3fa235defa49e1676bc0ec79707b3eaabbca8cbb2a518ac105d6000000006b483045022100b970192a2461869d46825f1d9d2888d05d68565b6b5272c6497b1aa5c917d604022061048348606fd44cf0fd3b198a8a99955706f6f5940f392128c46c6b83555b6e0121034fa0abb3bfca8a1a6b36528e60bacc5fb045be7842ecbc6712f2b0824c6ce189ffffffff011764cd1d000000001976a9146b069562debffe8b3f24b39aed8f56bcd6291f1b88ac000000001f48656c6c6f2066726f6d20417368757262616e6970616c2773207465737473",
      "raw": {
        "txid":"b704842dc6a74830014bc052d7cf7bbc4578c31619fb29437b61f9202a0f2775",
        "version":2,
        "locktime":0,
        "floData":"Hello from Ashurbanipal's tests",
        "vin":[
          {
            "txid":"d605c18a512abb8ccabbaa3e7b7079ecc06b67e149fade35a23f8d1e843a912e",
            "vout":0,
            "sequence":4294967295,
            "n":0,
            "scriptSig": {
              "hex":"483045022100b970192a2461869d46825f1d9d2888d05d68565b6b5272c6497b1aa5c917d604022061048348606fd44cf0fd3b198a8a99955706f6f5940f392128c46c6b83555b6e0121034fa0abb3bfca8a1a6b36528e60bacc5fb045be7842ecbc6712f2b0824c6ce189",
              "asm":"3045022100b970192a2461869d46825f1d9d2888d05d68565b6b5272c6497b1aa5c917d604022061048348606fd44cf0fd3b198a8a99955706f6f5940f392128c46c6b83555b6e01 034fa0abb3bfca8a1a6b36528e60bacc5fb045be7842ecbc6712f2b0824c6ce189"},
              "addr":"FFb1em1ZBE6BzLihSCxscqW6KLkLtpWzBH",
              "valueSat":500000000,
              "value":5,
              "doubleSpentTxID":null,
              "isConfirmed":null,
              "confirmations":null,
              "unconfirmedInput":null
            }
          ],
          "valueIn":5,
          "fees":0.00000233,
          "vout": [
            {
              "value":"4.99999767",
              "n":0,
              "scriptPubKey":{
                "hex":"76a9146b069562debffe8b3f24b39aed8f56bcd6291f1b88ac",
                "asm":"OP_DUP OP_HASH160 6b069562debffe8b3f24b39aed8f56bcd6291f1b OP_EQUALVERIFY OP_CHECKSIG",
                "addresses":["FFb1em1ZBE6BzLihSCxscqW6KLkLtpWzBH"],
                "type":"pubkeyhash"
              },
              "spentTxId":null,
              "spentIndex":null,
              "spentHeight":null
            }
          ],
          "blockhash":"512310e3677cf0b0e3796534c142bb612dde3f5351637e543dcc140acab30c4a",
          "blockheight":4666153,
          "confirmations":4166,
          "time":1615026180,
          "blocktime":1615026180,
          "valueOut":4.99999767,
          "size":224
        }
      }
      
  ],
  "hashForSignature": [
    {
      "description": "Out of range inIndex",
      "txHex": "010000000200000000000000000000000000000000000000000000000000000000000000000000000000ffffffff00000000000000000000000000000000000000000000000000000000000000000000000000ffffffff01e8030000000000000000000000",
      "inIndex": 2,
      "script": "OP_0",
      "type": 0,
      "hash": "0000000000000000000000000000000000000000000000000000000000000001"
    },
    {
      "description": "inIndex > nOutputs (SIGHASH_SINGLE)",
      "txHex": "010000000200000000000000000000000000000000000000000000000000000000000000000000000000ffffffff00000000000000000000000000000000000000000000000000000000000000000000000000ffffffff01e8030000000000000000000000",
      "inIndex": 2,
      "script": "OP_0",
      "type": 3,
      "hash": "0000000000000000000000000000000000000000000000000000000000000001"
    },
    {
      "txHex": "010000000200000000000000000000000000000000000000000000000000000000000000000000000000ffffffff00000000000000000000000000000000000000000000000000000000000000000000000000ffffffff01e8030000000000000000000000",
      "inIndex": 0,
      "script": "OP_0 OP_3",
      "type": 0,
      "hash": "3d56a632462b9fc9b89eeddcad7dbe476297f34aff7e5f9320e2a99fb5e97136"
    },
    {
      "txHex": "010000000200000000000000000000000000000000000000000000000000000000000000000000000000ffffffff00000000000000000000000000000000000000000000000000000000000000000000000000ffffffff01e8030000000000000000000000",
      "inIndex": 0,
      "script": "OP_0 OP_CODESEPARATOR OP_3",
      "type": 0,
      "hash": "3d56a632462b9fc9b89eeddcad7dbe476297f34aff7e5f9320e2a99fb5e97136"
    },
    {
      "txHex": "010000000200000000000000000000000000000000000000000000000000000000000000000000000000ffffffff00000000000000000000000000000000000000000000000000000000000000000000000000ffffffff01e8030000000000000000000000",
      "inIndex": 0,
      "script": "OP_0 OP_CODESEPARATOR OP_4",
      "type": 0,
      "hash": "fa075877cb54916236806a6562e4a8cdad48adf1268e73d72d1f9fdd867df463"
    }
  ],
  "hashForWitnessV0": [
    {
      "description": "Native P2WPKH with SIGHASH_ALL",
      "txHex": "0100000002fff7f7881a8099afa6940d42d1e7f6362bec38171ea3edf433541db4e4ad969f0000000000eeffffffef51e1b804cc89d182d279655c3aa89e815b1b309fe287d9b2b55d57b90ec68a0100000000ffffffff02202cb206000000001976a9148280b37df378db99f66f85c95a783a76ac7a6d5988ac9093510d000000001976a9143bde42dbee7e4dbe6a21b2d50ce2f0167faa815988ac11000000",
      "inIndex": 1,
      "script": "OP_DUP OP_HASH160 1d0f172a0ecb48aee1be1f2687d2963ae33f71a1 OP_EQUALVERIFY OP_CHECKSIG",
      "type": 1,
      "hash": "c37af31116d1b27caf68aae9e3ac82f1477929014d5b917657d0eb49478cb670",
      "value": 600000000
    },
    {
      "description": "P2WPKH with SIGHASH_ALL",
      "txHex": "0100000001db6b1b20aa0fd7b23880be2ecbd4a98130974cf4748fb66092ac4d3ceb1a54770100000000feffffff02b8b4eb0b000000001976a914a457b684d7f0d539a46a45bbc043f35b59d0d96388ac0008af2f000000001976a914fd270b1ee6abcaea97fea7ad0402e8bd8ad6d77c88ac92040000",
      "inIndex": 0,
      "script": "OP_DUP OP_HASH160 79091972186c449eb1ded22b78e40d009bdf0089 OP_EQUALVERIFY OP_CHECKSIG",
      "type": 1,
      "hash": "64f3b0f4dd2bb3aa1ce8566d220cc74dda9df97d8490cc81d89d735c92e59fb6",
      "value": 1000000000
    },
    {
      "description": "P2WSH with SIGHASH_ALL",
      "txHex": "010000000136641869ca081e70f394c6948e8af409e18b619df2ed74aa106c1ca29787b96e0100000000ffffffff0200e9a435000000001976a914389ffce9cd9ae88dcc0631e88a821ffdbe9bfe2688acc0832f05000000001976a9147480a33f950689af511e6e84c138dbbd3c3ee41588ac00000000",
      "inIndex": 0,
      "script": "OP_6 0307b8ae49ac90a048e9b53357a2354b3334e9c8bee813ecb98e99a7e07e8c3ba3 03b28f0c28bfab54554ae8c658ac5c3e0ce6e79ad336331f78c428dd43eea8449b 034b8113d703413d57761b8b9781957b8c0ac1dfe69f492580ca4195f50376ba4a 033400f6afecb833092a9a21cfdf1ed1376e58c5d1f47de74683123987e967a8f4 03a6d48b1131e94ba04d9737d61acdaa1322008af9602b3b14862c07a1789aac16 02d8b661b0b3302ee2f162b09e07a55ad5dfbe673a9f01d9f0c19617681024306b OP_6 OP_CHECKMULTISIG",
      "type": 1,
      "hash": "185c0be5263dce5b4bb50a047973c1b6272bfbd0103a89444597dc40b248ee7c",
      "value": 987654321
    },
    {
      "description": "P2WSH with SIGHASH_NONE",
      "txHex": "010000000136641869ca081e70f394c6948e8af409e18b619df2ed74aa106c1ca29787b96e0100000000ffffffff0200e9a435000000001976a914389ffce9cd9ae88dcc0631e88a821ffdbe9bfe2688acc0832f05000000001976a9147480a33f950689af511e6e84c138dbbd3c3ee41588ac00000000",
      "inIndex": 0,
      "script": "OP_6 0307b8ae49ac90a048e9b53357a2354b3334e9c8bee813ecb98e99a7e07e8c3ba3 03b28f0c28bfab54554ae8c658ac5c3e0ce6e79ad336331f78c428dd43eea8449b 034b8113d703413d57761b8b9781957b8c0ac1dfe69f492580ca4195f50376ba4a 033400f6afecb833092a9a21cfdf1ed1376e58c5d1f47de74683123987e967a8f4 03a6d48b1131e94ba04d9737d61acdaa1322008af9602b3b14862c07a1789aac16 02d8b661b0b3302ee2f162b09e07a55ad5dfbe673a9f01d9f0c19617681024306b OP_6 OP_CHECKMULTISIG",
      "type": 2,
      "hash": "e9733bc60ea13c95c6527066bb975a2ff29a925e80aa14c213f686cbae5d2f36",
      "value": 987654321
    },
    {
      "description": "P2WSH with SIGHASH_SINGLE",
      "txHex": "010000000136641869ca081e70f394c6948e8af409e18b619df2ed74aa106c1ca29787b96e0100000000ffffffff0200e9a435000000001976a914389ffce9cd9ae88dcc0631e88a821ffdbe9bfe2688acc0832f05000000001976a9147480a33f950689af511e6e84c138dbbd3c3ee41588ac00000000",
      "inIndex": 0,
      "script": "OP_6 0307b8ae49ac90a048e9b53357a2354b3334e9c8bee813ecb98e99a7e07e8c3ba3 03b28f0c28bfab54554ae8c658ac5c3e0ce6e79ad336331f78c428dd43eea8449b 034b8113d703413d57761b8b9781957b8c0ac1dfe69f492580ca4195f50376ba4a 033400f6afecb833092a9a21cfdf1ed1376e58c5d1f47de74683123987e967a8f4 03a6d48b1131e94ba04d9737d61acdaa1322008af9602b3b14862c07a1789aac16 02d8b661b0b3302ee2f162b09e07a55ad5dfbe673a9f01d9f0c19617681024306b OP_6 OP_CHECKMULTISIG",
      "type": 3,
      "hash": "1e1f1c303dc025bd664acb72e583e933fae4cff9148bf78c157d1e8f78530aea",
      "value": 987654321
    },
    {
      "description": "P2WSH with SIGHASH_ALL | SIGHASH_ANYONECANPAY",
      "txHex": "010000000136641869ca081e70f394c6948e8af409e18b619df2ed74aa106c1ca29787b96e0100000000ffffffff0200e9a435000000001976a914389ffce9cd9ae88dcc0631e88a821ffdbe9bfe2688acc0832f05000000001976a9147480a33f950689af511e6e84c138dbbd3c3ee41588ac00000000",
      "inIndex": 0,
      "script": "OP_6 0307b8ae49ac90a048e9b53357a2354b3334e9c8bee813ecb98e99a7e07e8c3ba3 03b28f0c28bfab54554ae8c658ac5c3e0ce6e79ad336331f78c428dd43eea8449b 034b8113d703413d57761b8b9781957b8c0ac1dfe69f492580ca4195f50376ba4a 033400f6afecb833092a9a21cfdf1ed1376e58c5d1f47de74683123987e967a8f4 03a6d48b1131e94ba04d9737d61acdaa1322008af9602b3b14862c07a1789aac16 02d8b661b0b3302ee2f162b09e07a55ad5dfbe673a9f01d9f0c19617681024306b OP_6 OP_CHECKMULTISIG",
      "type": 129,
      "hash": "2a67f03e63a6a422125878b40b82da593be8d4efaafe88ee528af6e5a9955c6e",
      "value": 987654321
    },
    {
      "description": "P2WSH with SIGHASH_NONE | SIGHASH_ANYONECANPAY",
      "txHex": "010000000136641869ca081e70f394c6948e8af409e18b619df2ed74aa106c1ca29787b96e0100000000ffffffff0200e9a435000000001976a914389ffce9cd9ae88dcc0631e88a821ffdbe9bfe2688acc0832f05000000001976a9147480a33f950689af511e6e84c138dbbd3c3ee41588ac00000000",
      "inIndex": 0,
      "script": "OP_6 0307b8ae49ac90a048e9b53357a2354b3334e9c8bee813ecb98e99a7e07e8c3ba3 03b28f0c28bfab54554ae8c658ac5c3e0ce6e79ad336331f78c428dd43eea8449b 034b8113d703413d57761b8b9781957b8c0ac1dfe69f492580ca4195f50376ba4a 033400f6afecb833092a9a21cfdf1ed1376e58c5d1f47de74683123987e967a8f4 03a6d48b1131e94ba04d9737d61acdaa1322008af9602b3b14862c07a1789aac16 02d8b661b0b3302ee2f162b09e07a55ad5dfbe673a9f01d9f0c19617681024306b OP_6 OP_CHECKMULTISIG",
      "type": 130,
      "hash": "781ba15f3779d5542ce8ecb5c18716733a5ee42a6f51488ec96154934e2c890a",
      "value": 987654321
    },
    {
      "description": "P2WSH with SIGHASH_SINGLE | SIGHASH_ANYONECANPAY",
      "txHex": "010000000136641869ca081e70f394c6948e8af409e18b619df2ed74aa106c1ca29787b96e0100000000ffffffff0200e9a435000000001976a914389ffce9cd9ae88dcc0631e88a821ffdbe9bfe2688acc0832f05000000001976a9147480a33f950689af511e6e84c138dbbd3c3ee41588ac00000000",
      "inIndex": 0,
      "script": "OP_6 0307b8ae49ac90a048e9b53357a2354b3334e9c8bee813ecb98e99a7e07e8c3ba3 03b28f0c28bfab54554ae8c658ac5c3e0ce6e79ad336331f78c428dd43eea8449b 034b8113d703413d57761b8b9781957b8c0ac1dfe69f492580ca4195f50376ba4a 033400f6afecb833092a9a21cfdf1ed1376e58c5d1f47de74683123987e967a8f4 03a6d48b1131e94ba04d9737d61acdaa1322008af9602b3b14862c07a1789aac16 02d8b661b0b3302ee2f162b09e07a55ad5dfbe673a9f01d9f0c19617681024306b OP_6 OP_CHECKMULTISIG",
      "type": 131,
      "hash": "511e8e52ed574121fc1b654970395502128263f62662e076dc6baf05c2e6a99b",
      "value": 987654321
    }
  ],
  "invalid": {
    "addInput": [
      {
        "exception": "Expected property \"0\" of type Buffer\\(Length: 32\\), got Buffer\\(Length: 30\\)",
        "hash": "0aed1366a73b6057ee7800d737bff1bdf8c448e98d86bc0998f2b009816d",
        "index": 0
      },
      {
        "exception": "Expected property \"0\" of type Buffer\\(Length: 32\\), got Buffer\\(Length: 34\\)",
        "hash": "0aed1366a73b6057ee7800d737bff1bdf8c448e98d86bc0998f2b009816da9b0ffff",
        "index": 0
      }
    ],
    "fromBuffer": [
      {
        "exception": "Transaction has unexpected data",
        "hex": "0100000002f1fefefefefefefefefefefefefefefefefefefefefefefefefefefefefefefe000000006b483045022100e661badd8d2cf1af27eb3b82e61b5d3f5d5512084591796ae31487f5b82df948022006df3c2a2cac79f68e4b179f4bbb8185a0bb3c4a2486d4405c59b2ba07a74c2101210279be667ef9dcbbac55a06295ce870b07029bfcdb2dce28d959f2815b16f81798fffffffff2fefefefefefefefefefefefefefefefefefefefefefefefefefefefefefefe0100000083483045022100be54a46a44fb7e6bf4ebf348061d0dace7ddcbb92d4147ce181cf4789c7061f0022068ccab2a89a47fc29bb5074bca99ae846ab446eecf3c3aaeb238a13838783c78012102c6047f9441ed7d6d3045406e95c07cd85c778e4b8cef3ca7abac09b95c709ee517a9147ccb85f0ab2d599bc17246c98babd5a20b1cdc7687ffffffff0250c30000000000001976a914c42e7ef92fdb603af844d064faad95db9bcdfd3d88acf04902000000000017a9147ccb85f0ab2d599bc17246c98babd5a20b1cdc768700000000ffffffff"
      },
      {
        "exception": "Transaction has superfluous witness data",
        "hex": "0100000000010113ae35a2063ba413c3a1bb9b3820c76291e40e83bd3f23c8ff83333f0c64d623000000004a00483045022100e332e8367d5fee22c205ce1bf4e01e39f1a8decb3ba20d1336770cf38b8ee72d022076b5f83b3ee15390133b7ebf526ec189eb73cc6ee0a726f70b939bc51fa18d8001ffffffff0180969800000000001976a914b1ae3ceac136e4bdb733663e7a1e2f0961198a1788ac0000000000"
      }
    ]
  }
}
